ABCDEFGHIJKL        00100     C                    N12345678W1234567891234       GND   99999MMY LITTLE TEST                000000000
ABCDEFGHIJKL        00100     H N12345678W123456789                              GND   99999MANOTHER LITTLE TEST           000000000
ABCDEFGHIJKL        00200     L N12345678W123456789N12345678W12345678912341234                                             000000000
ABCDEFGHIJKL        00300     G N12345678W123456789
